:100000000EC015C014C013C012C011C010C00FC064
:100010000EC00DC00CC00BC00AC009C008C011241E
:100020001FBECFE5D2E0DEBFCDBF75D09DC0E8CF0B
:1000300027E030E070E0FB01022E02C0F595E79565
:100040000A94E2F7C09AE0FF07C052E05A95F1F730
:10005000C09800C000C006C000C00000C09892E078
:100060009A95F1F700002150310928F727E030E098
:1000700090E0BC01022E02C0759567950A94E2F7E4
:10008000C09A60FF07C052E05A95F1F7C09800C0CF
:1000900000C006C000C00000C09852E05A95F1F7B9
:1000A00000002150310928F787E090E050E09A01E4
:1000B000082E02C0359527950A94E2F7C09A20FFD2
:1000C00007C022E02A95F1F7C09800C000C006C022
:1000D00000C00000C09822E02A95F1F700000197C7
:1000E00030F70895C09885E88A95F1F700000895E3
:1000F0000F931F93CF93DF93D82F162F042FC8E0B1
:10010000402F612F8D2F94DFC150D1F7DF91CF9118
:100110001F910F91E7CFB89A40E060E08FEFE8DFE2
:100120002FEF89E698E1215080409040E1F700C030
:10013000000040E06FEF80E0DBDF2FEF89E698E121
:10014000215080409040E1F700C000004FEF60E098
:1001500080E0CEDF2FEF89E698E12150804090408B
:0C016000E1F700C00000D8CFF894FFCFFA
:00000001FF
