:100000000EC01DC01DC01BC01AC019C018C017C02B
:1000100016C015C014C013C012C011C010C01124E6
:100020001FBECFE5D2E0DEBFCDBF20E0A0E6B0E04E
:1000300001C01D92A439B207E1F71DD149C1E0CF3B
:100040001F920F920FB60F9211248F93B1990DC08A
:10005000809160008F5F80936000809160008630A7
:1000600010F010926000B19BFECF8F910F900FBEE9
:100070000F901F901895982F853568F463E00ED186
:1000800080936100892F6DEF09D1815080936200C8
:10009000109263001DC08A3A68F49555892F6DEF60
:1000A000FDD081508093610010926200892F63E03F
:1000B000F5D00CC09A5A10926100892F63E0EED0FF
:1000C00080936200892F6DEFE9D0815080936300A7
:1000D00081E690E00895362FE82FF0E0CF0163E04D
:1000E00070E0E5D0DC01AC59BF4F3C9311964C93C6
:1000F0001197FD012283089527E030E070E0FB01B5
:10010000022E02C0F595E7950A94E2F7C09AE0FF47
:1001100007C052E05A95F1F7C09800C000C006C071
:1001200000C00000C09892E09A95F1F700002150BD
:10013000310928F727E030E090E0BC01022E02C030
:10014000759567950A94E2F7C09A60FF07C052E080
:100150005A95F1F7C09800C000C006C000C000006A
:10016000C09852E05A95F1F700002150310928F764
:1001700087E090E050E09A01082E02C0359527955F
:100180000A94E2F7C09A20FF07C022E02A95F1F70F
:10019000C09800C000C006C000C00000C09822E0A7
:1001A0002A95F1F70000019730F70895CF93DF9378
:1001B000C4E6D0E04A81698188819EDF239680E091
:1001C000C439D807B9F7C09885E88A95F1F70000D7
:1001D000DF91CF910895E4E6F0E08083618342836C
:1001E000339690E0E439F907C1F7E0CFF82E00E04C
:1001F000C4E6D0E010E0812F8295807F800F3BDF46
:10020000FC01828191812081288399838A831F5FE9
:100210002396103181F7CADF80E08F1541F0EFECB3
:10022000F7E03197F1F700C000008F5FF6CF0F5F66
:10023000DFCF80916000823091F028F4882349F06C
:10024000813051F00895843081F068F0853079F084
:10025000089540E060E00DC040E06FEF02C04FEF56
:1002600060E080E007C04FEF03C084E1BFDF40E003
:100270006FEF8FEFB0CFB89AB998C19A8BB7806201
:100280008BBFA99A7894D5DF2FEF80E792E02150B9
:1002900080409040E1F700C00000F5CF002480FDD1
:1002A000060E660F11F08695D1F7802D0895002473
:1002B000552704C0080E591F880F991F009729F071
:1002C00076956795B8F37105B9F7802D952F089548
:0402D000F894FFCFD0
:00000001FF
