:100000000EC015C014C013C012C011C010C00FC064
:100010000EC00DC00CC00BC00AC009C008C011241E
:100020001FBECFE5D2E0DEBFCDBF19D035C0E8CFCF
:10003000B89AB998C19A0895B19B02C080E008951A
:100040002FE788E391E0215080409040E1F700C025
:100050000000B199F3CFB19BFECF81E00895E8DFB6
:10006000C0E0D1E0E9DF882321F0CC2321F0C09863
:1000700010C0CC2371F088B38D2788BB2FEF84E3A9
:100080009CE0215080409040E1F700C00000C1E0BA
:0C009000E9CFC098C0E0E6CFF894FFCFA5
:00000001FF
