:100000000EC01DC026C01BC01AC019C018C017C022
:1000100016C015C014C013C012C011C010C01124E6
:100020001FBECFE5D2E0DEBFCDBF20E0A0E6B0E04E
:1000300001C01D92A136B207E1F722D038C0E0CF4F
:10004000B89AB998C19A08958BB780628BBFA99A64
:1000500008951F920F920FB60F9211248F939F93C2
:10006000B19907C09091600081E0911180E0809388
:1000700060009F918F910F900FBE0F901F90189569
:10008000DFDFE2DF789491E080916000882369F0FF
:1000900088B3892788BB2FEF34E38CE021503040B0
:1000A0008040E1F700C00000EFCFC098EDCFF8949A
:0200B000FFCF80
:00000001FF
