:100000000EC028C06AC026C025C024C023C022C09C
:1000100021C020C08EC01EC01DC01CC01BC011242A
:100020001FBECFE5D2E0DEBFCDBF10E0A0E6B0E05E
:10003000E6E9F2E002C005900D92A83CB107D9F7BD
:1000400020E0A8ECB0E001C01D92AB3CB207E1F7A4
:10005000CCD01FC1D5CF87B3876187BBBB98C39A6C
:100060008BB780628BBFAB9A7894089588B3887FF2
:1000700088BB089521E030E0A90102C0440F551F5C
:100080008A95E2F7CA01342F809590E09617D1F057
:1000900028B3232B28BB5FEF24E34CE051502040D2
:1000A0004040E1F700C0000028B3282328BB5FEFE1
:1000B00024E34CE0515020404040E1F700C00000F4
:1000C0009F5FE4CF089582E08ABD85E083BF8EE420
:1000D00089BD89B7806189BF08951F920F920FB6BD
:1000E0000F9211242F933F934F935F936F937F93BE
:1000F0008F939F93AF93BF93EF93FF93B39908C0F0
:100100008091C800811104C081E08093C800DBDFCA
:10011000FF91EF91BF91AF919F918F917F916F91DF
:100120005F914F913F912F910F900FBE0F901F90B5
:1001300018951F920F920FB60F9211248F939F93D1
:100140008091C9009091CA0001968F30910528F4E2
:100150009093CA008093C90008C01092CA00109200
:10016000C90089B78F7E89BF13BE9F918F910F9071
:100170000FBE0F901F901895BC9AC49A0895C4980A
:10018000EFECF0E03197F1F700C0000020E030E044
:10019000082E000C990BAC01022E02C05595479514
:1001A0000A94E2F740FF02C0C49A01C0C498EFEC81
:1001B000F0E03197F1F700C000002F5F3F4F28308B
:1001C000310549F7C49A8FEC90E00197F1F700C030
:1001D00000000895CF93DF93EC018991882311F0FB
:1001E000CEDFFBCFDF91CF91089535DFC5DF3EDF56
:1001F000C09A8AE690E0EEDF8EE190E02091C800A0
:10020000222319F01092C8000BC02FEF39E648E105
:10021000215030404040E1F700C00000019771F7E5
:1002200063E080E027DF89E790E0D4DF1FDFC19A39
:100230008EE890E0CFDF8FEF91E12AE78150904088
:100240002040E1F700C0000011DFC29A80EA90E090
:10025000C1DF3FEF49E582E692E031504040804007
:100260009040D9F700C0000063E082E003DF81EB3B
:1002700090E0B0DFFBDEC19A8EE890E0ABDF2FEFBD
:1002800031E14AE7215030404040E1F700C0000032
:06029000AECFF894FFCF91
:10029600983AF401307588133075526564206C699C
:1002A600676874204F4E0D0A00526564206C6967BA
:1002B600687420666C617368696E670D0A0059651B
:1002C6006C6C6F77206C69676874204F4E0D0A005E
:1002D600477265656E206C69676874204F4E0D0A1B
:1002E60000477265656E206C6967687420666C618C
:0802F6007368696E670D0A00D0
:00000001FF
